{
  "contractName": "VotingContract",
  "abi": [
    {
      "inputs": [],
      "stateMutability": "nonpayable",
      "type": "constructor"
    },
    {
      "anonymous": false,
      "inputs": [
        {
          "indexed": false,
          "internalType": "address",
          "name": "voter",
          "type": "address"
        },
        {
          "indexed": false,
          "internalType": "uint256",
          "name": "partyID",
          "type": "uint256"
        }
      ],
      "name": "VoteSubmitted",
      "type": "event"
    },
    {
      "inputs": [
        {
          "internalType": "address",
          "name": "",
          "type": "address"
        }
      ],
      "name": "hasVoted",
      "outputs": [
        {
          "internalType": "bool",
          "name": "",
          "type": "bool"
        }
      ],
      "stateMutability": "view",
      "type": "function",
      "constant": true
    },
    {
      "inputs": [],
      "name": "owner",
      "outputs": [
        {
          "internalType": "address",
          "name": "",
          "type": "address"
        }
      ],
      "stateMutability": "view",
      "type": "function",
      "constant": true
    },
    {
      "inputs": [
        {
          "components": [
            {
              "internalType": "address",
              "name": "voter",
              "type": "address"
            },
            {
              "internalType": "uint256",
              "name": "partyID",
              "type": "uint256"
            },
            {
              "internalType": "bytes",
              "name": "signature",
              "type": "bytes"
            }
          ],
          "internalType": "struct VotingContract.Vote[]",
          "name": "votes",
          "type": "tuple[]"
        }
      ],
      "name": "submitVotes",
      "outputs": [],
      "stateMutability": "nonpayable",
      "type": "function"
    }
  ],
  "bytecode": "0x608060405234801561001057600080fd5b5033600160006101000a81548173ffffffffffffffffffffffffffffffffffffffff021916908373ffffffffffffffffffffffffffffffffffffffff160217905550610d22806100616000396000f3fe608060405234801561001057600080fd5b50600436106100415760003560e01c806309eef43e146100465780634a5c8780146100765780638da5cb5b14610092575b600080fd5b610060600480360381019061005b919061054a565b6100b0565b60405161006d9190610592565b60405180910390f35b610090600480360381019061008b9190610899565b6100d0565b005b61009a61039a565b6040516100a791906108f1565b60405180910390f35b60006020528060005260406000206000915054906101000a900460ff1681565b60005b8151811015610396576000808383815181106100f2576100f161090c565b5b60200260200101516000015173ffffffffffffffffffffffffffffffffffffffff1673ffffffffffffffffffffffffffffffffffffffff16815260200190815260200160002060009054906101000a900460ff1615610186576040517f08c379a000000000000000000000000000000000000000000000000000000000815260040161017d90610998565b60405180910390fd5b600082828151811061019b5761019a61090c565b5b6020026020010151600001518383815181106101ba576101b961090c565b5b6020026020010151602001516040516020016101d7929190610a21565b60405160208183030381529060405280519060200120905060006101fa826103c0565b90506000610226828686815181106102155761021461090c565b5b6020026020010151604001516103f0565b905084848151811061023b5761023a61090c565b5b60200260200101516000015173ffffffffffffffffffffffffffffffffffffffff168173ffffffffffffffffffffffffffffffffffffffff16146102b4576040517f08c379a00000000000000000000000000000000000000000000000000000000081526004016102ab90610a99565b60405180910390fd5b60016000808787815181106102cc576102cb61090c565b5b60200260200101516000015173ffffffffffffffffffffffffffffffffffffffff1673ffffffffffffffffffffffffffffffffffffffff16815260200190815260200160002060006101000a81548160ff0219169083151502179055507f98f81efbbc42e3175555266dc8fda4ea0859ca75447f118fdde2c72a2b8735f18186868151811061035e5761035d61090c565b5b602002602001015160200151604051610378929190610ac8565b60405180910390a1505050808061038e90610b20565b9150506100d3565b5050565b600160009054906101000a900473ffffffffffffffffffffffffffffffffffffffff1681565b6000816040516020016103d39190610bea565b604051602081830303815290604052805190602001209050919050565b6000806000806103ff8561045f565b925092509250600186848484604051600081526020016040526040516104289493929190610c3b565b6020604051602081039080840390855afa15801561044a573d6000803e3d6000fd5b50505060206040510351935050505092915050565b600080600060418451146104a8576040517f08c379a000000000000000000000000000000000000000000000000000000000815260040161049f90610ccc565b60405180910390fd5b60008060006020870151925060408701519150606087015160001a90508083839550955095505050509193909250565b6000604051905090565b600080fd5b600080fd5b600073ffffffffffffffffffffffffffffffffffffffff82169050919050565b6000610517826104ec565b9050919050565b6105278161050c565b811461053257600080fd5b50565b6000813590506105448161051e565b92915050565b6000602082840312156105605761055f6104e2565b5b600061056e84828501610535565b91505092915050565b60008115159050919050565b61058c81610577565b82525050565b60006020820190506105a76000830184610583565b92915050565b600080fd5b6000601f19601f8301169050919050565b7f4e487b7100000000000000000000000000000000000000000000000000000000600052604160045260246000fd5b6105fb826105b2565b810181811067ffffffffffffffff8211171561061a576106196105c3565b5b80604052505050565b600061062d6104d8565b905061063982826105f2565b919050565b600067ffffffffffffffff821115610659576106586105c3565b5b602082029050602081019050919050565b600080fd5b600080fd5b600080fd5b6000819050919050565b61068c81610679565b811461069757600080fd5b50565b6000813590506106a981610683565b92915050565b600080fd5b600067ffffffffffffffff8211156106cf576106ce6105c3565b5b6106d8826105b2565b9050602081019050919050565b82818337600083830152505050565b6000610707610702846106b4565b610623565b905082815260208101848484011115610723576107226106af565b5b61072e8482856106e5565b509392505050565b600082601f83011261074b5761074a6105ad565b5b813561075b8482602086016106f4565b91505092915050565b60006060828403121561077a5761077961066f565b5b6107846060610623565b9050600061079484828501610535565b60008301525060206107a88482850161069a565b602083015250604082013567ffffffffffffffff8111156107cc576107cb610674565b5b6107d884828501610736565b60408301525092915050565b60006107f76107f28461063e565b610623565b9050808382526020820190506020840283018581111561081a5761081961066a565b5b835b8181101561086157803567ffffffffffffffff81111561083f5761083e6105ad565b5b80860161084c8982610764565b8552602085019450505060208101905061081c565b5050509392505050565b600082601f8301126108805761087f6105ad565b5b81356108908482602086016107e4565b91505092915050565b6000602082840312156108af576108ae6104e2565b5b600082013567ffffffffffffffff8111156108cd576108cc6104e7565b5b6108d98482850161086b565b91505092915050565b6108eb8161050c565b82525050565b600060208201905061090660008301846108e2565b92915050565b7f4e487b7100000000000000000000000000000000000000000000000000000000600052603260045260246000fd5b600082825260208201905092915050565b7f416c726561647920766f74656400000000000000000000000000000000000000600082015250565b6000610982600d8361093b565b915061098d8261094c565b602082019050919050565b600060208201905081810360008301526109b181610975565b9050919050565b60008160601b9050919050565b60006109d0826109b8565b9050919050565b60006109e2826109c5565b9050919050565b6109fa6109f58261050c565b6109d7565b82525050565b6000819050919050565b610a1b610a1682610679565b610a00565b82525050565b6000610a2d82856109e9565b601482019150610a3d8284610a0a565b6020820191508190509392505050565b7f496e76616c6964207369676e6174757265000000000000000000000000000000600082015250565b6000610a8360118361093b565b9150610a8e82610a4d565b602082019050919050565b60006020820190508181036000830152610ab281610a76565b9050919050565b610ac281610679565b82525050565b6000604082019050610add60008301856108e2565b610aea6020830184610ab9565b9392505050565b7f4e487b7100000000000000000000000000000000000000000000000000000000600052601160045260246000fd5b6000610b2b82610679565b91507fffffffffffffffffffffffffffffffffffffffffffffffffffffffffffffffff8203610b5d57610b5c610af1565b5b600182019050919050565b600081905092915050565b7f19457468657265756d205369676e6564204d6573736167653a0a333200000000600082015250565b6000610ba9601c83610b68565b9150610bb482610b73565b601c82019050919050565b6000819050919050565b6000819050919050565b610be4610bdf82610bbf565b610bc9565b82525050565b6000610bf582610b9c565b9150610c018284610bd3565b60208201915081905092915050565b610c1981610bbf565b82525050565b600060ff82169050919050565b610c3581610c1f565b82525050565b6000608082019050610c506000830187610c10565b610c5d6020830186610c2c565b610c6a6040830185610c10565b610c776060830184610c10565b95945050505050565b7f496e76616c6964207369676e6174757265206c656e6774680000000000000000600082015250565b6000610cb660188361093b565b9150610cc182610c80565b602082019050919050565b60006020820190508181036000830152610ce581610ca9565b905091905056fea26469706673582212207f1d682ce1caa28d4d408dc65ba0134a70ceef7ba6aae178454bbc25d6f0baef64736f6c63430008130033",
  "immutableReferences": {},
  "source": "// SPDX-License-Identifier: MIT\r\npragma solidity ^0.8.19;\r\n\r\ncontract VotingContract {\r\n    struct Vote {\r\n        address voter;\r\n        uint256 partyID;\r\n        bytes signature;\r\n    }\r\n\r\n    mapping(address => bool) public hasVoted;\r\n    event VoteSubmitted(address voter, uint256 partyID);\r\n    address public owner;\r\n\r\n    constructor() {\r\n        owner = msg.sender;\r\n    }\r\n\r\n    function submitVotes(Vote[] memory votes) public {\r\n\r\n        for (uint256 i = 0; i < votes.length; i++) {\r\n            require(!hasVoted[votes[i].voter], \"Already voted\");\r\n            \r\n            // Verify signature\r\n            bytes32 message = keccak256(abi.encodePacked(votes[i].voter, votes[i].partyID));\r\n            bytes32 ethSignedMessageHash = prefixed(message);\r\n            address signer = recoverSigner(ethSignedMessageHash, votes[i].signature);\r\n            \r\n            require(signer == votes[i].voter, \"Invalid signature\");\r\n\r\n            hasVoted[votes[i].voter] = true;\r\n\r\n            // uint256 partyId = votes[i].partyID;\r\n\r\n            // Emit vote event\r\n            emit VoteSubmitted(signer, votes[i].partyID);\r\n        }\r\n    }\r\n\r\n    function prefixed(bytes32 hash) internal pure returns (bytes32) {\r\n        return keccak256(abi.encodePacked(\"\\x19Ethereum Signed Message:\\n32\", hash));\r\n    }\r\n\r\n    function recoverSigner(bytes32 message, bytes memory sig) internal pure returns (address) {\r\n        (uint8 v, bytes32 r, bytes32 s) = splitSignature(sig);\r\n        return ecrecover(message, v, r, s);\r\n    }\r\n\r\n    function splitSignature(bytes memory sig) internal pure returns (uint8, bytes32, bytes32) {\r\n        require(sig.length == 65, \"Invalid signature length\");\r\n        bytes32 r;\r\n        bytes32 s;\r\n        uint8 v;\r\n        assembly {\r\n            r := mload(add(sig, 32))\r\n            s := mload(add(sig, 64))\r\n            v := byte(0, mload(add(sig, 96)))\r\n        }\r\n        return (v, r, s);\r\n    }\r\n}\r\n",
  "sourcePath": "C:\\Users\\Suhrud k\\OneDrive - somaiya.edu\\KJS material\\TY KJSCE\\MiniProj\\Votes\\auth-final\\backend\\contracts\\Voting.sol",
  "compiler": {
    "name": "solc",
    "version": "0.8.19+commit.7dd6d404.Emscripten.clang"
  },
  "schemaVersion": "3.4.16",
  "updatedAt": "2025-03-17T19:01:27.704Z",
  "networkType": "ethereum",
  "devdoc": {
    "kind": "dev",
    "methods": {},
    "version": 1
  },
  "userdoc": {
    "kind": "user",
    "methods": {},
    "version": 1
  }
}