{
  "contractName": "VotingContract",
  "abi": [
    {
      "inputs": [],
      "stateMutability": "nonpayable",
      "type": "constructor"
    },
    {
      "anonymous": false,
      "inputs": [
        {
          "indexed": true,
          "internalType": "uint256",
          "name": "index",
          "type": "uint256"
        },
        {
          "indexed": false,
          "internalType": "bytes32",
          "name": "merkleRoot",
          "type": "bytes32"
        }
      ],
      "name": "MerkleRootStored",
      "type": "event"
    },
    {
      "anonymous": false,
      "inputs": [
        {
          "indexed": true,
          "internalType": "address",
          "name": "voter",
          "type": "address"
        },
        {
          "indexed": false,
          "internalType": "string",
          "name": "reason",
          "type": "string"
        }
      ],
      "name": "VoteSkipped",
      "type": "event"
    },
    {
      "anonymous": false,
      "inputs": [
        {
          "indexed": false,
          "internalType": "address",
          "name": "voter",
          "type": "address"
        },
        {
          "indexed": false,
          "internalType": "uint256",
          "name": "partyID",
          "type": "uint256"
        }
      ],
      "name": "VoteSubmitted",
      "type": "event"
    },
    {
      "inputs": [
        {
          "internalType": "address",
          "name": "",
          "type": "address"
        }
      ],
      "name": "hasVoted",
      "outputs": [
        {
          "internalType": "bool",
          "name": "",
          "type": "bool"
        }
      ],
      "stateMutability": "view",
      "type": "function",
      "constant": true
    },
    {
      "inputs": [
        {
          "internalType": "uint256",
          "name": "",
          "type": "uint256"
        }
      ],
      "name": "merkleRoots",
      "outputs": [
        {
          "internalType": "bytes32",
          "name": "",
          "type": "bytes32"
        }
      ],
      "stateMutability": "view",
      "type": "function",
      "constant": true
    },
    {
      "inputs": [],
      "name": "owner",
      "outputs": [
        {
          "internalType": "address",
          "name": "",
          "type": "address"
        }
      ],
      "stateMutability": "view",
      "type": "function",
      "constant": true
    },
    {
      "inputs": [
        {
          "components": [
            {
              "internalType": "address",
              "name": "voter",
              "type": "address"
            },
            {
              "internalType": "uint256",
              "name": "partyID",
              "type": "uint256"
            },
            {
              "internalType": "bytes",
              "name": "signature",
              "type": "bytes"
            }
          ],
          "internalType": "struct VotingContract.Vote[]",
          "name": "votes",
          "type": "tuple[]"
        }
      ],
      "name": "submitVotes",
      "outputs": [],
      "stateMutability": "nonpayable",
      "type": "function"
    },
    {
      "inputs": [
        {
          "internalType": "bytes32",
          "name": "root",
          "type": "bytes32"
        }
      ],
      "name": "storeMerkleRoot",
      "outputs": [
        {
          "internalType": "uint256",
          "name": "",
          "type": "uint256"
        }
      ],
      "stateMutability": "nonpayable",
      "type": "function"
    },
    {
      "inputs": [
        {
          "internalType": "uint256",
          "name": "index",
          "type": "uint256"
        }
      ],
      "name": "getMerkleRoot",
      "outputs": [
        {
          "internalType": "bytes32",
          "name": "",
          "type": "bytes32"
        }
      ],
      "stateMutability": "view",
      "type": "function",
      "constant": true
    }
  ],
  "bytecode": "0x608060405234801561001057600080fd5b5033600160006101000a81548173ffffffffffffffffffffffffffffffffffffffff021916908373ffffffffffffffffffffffffffffffffffffffff1602179055506111d2806100616000396000f3fe608060405234801561001057600080fd5b50600436106100625760003560e01c806309eef43e146100675780630aab8ba5146100975780634a5c8780146100c7578063665267a0146100e357806371c5ecb1146101135780638da5cb5b14610143575b600080fd5b610081600480360381019061007c919061080c565b610161565b60405161008e9190610854565b60405180910390f35b6100b160048036038101906100ac91906108a5565b610181565b6040516100be91906108eb565b60405180910390f35b6100e160048036038101906100dc9190610bbc565b6101f0565b005b6100fd60048036038101906100f89190610c31565b610526565b60405161010a9190610c6d565b60405180910390f35b61012d600480360381019061012891906108a5565b610638565b60405161013a91906108eb565b60405180910390f35b61014b61065c565b6040516101589190610c97565b60405180910390f35b60006020528060005260406000206000915054906101000a900460ff1681565b600060028054905082106101ca576040517f08c379a00000000000000000000000000000000000000000000000000000000081526004016101c190610d0f565b60405180910390fd5b600282815481106101de576101dd610d2f565b5b90600052602060002001549050919050565b60005b81518110156105225760008083838151811061021257610211610d2f565b5b60200260200101516000015173ffffffffffffffffffffffffffffffffffffffff1673ffffffffffffffffffffffffffffffffffffffff16815260200190815260200160002060009054906101000a900460ff16156102da5781818151811061027e5761027d610d2f565b5b60200260200101516000015173ffffffffffffffffffffffffffffffffffffffff167f1ac0ea999b738b283ae77e99edd35570fec473ccbc05938fba44d3129608af1f6040516102cd90610daa565b60405180910390a261050f565b60008282815181106102ef576102ee610d2f565b5b60200260200101516000015183838151811061030e5761030d610d2f565b5b60200260200101516020015160405160200161032b929190610e33565b604051602081830303815290604052805190602001209050600061034e82610682565b9050600061037a8286868151811061036957610368610d2f565b5b6020026020010151604001516106b2565b905084848151811061038f5761038e610d2f565b5b60200260200101516000015173ffffffffffffffffffffffffffffffffffffffff168173ffffffffffffffffffffffffffffffffffffffff161461043f578484815181106103e0576103df610d2f565b5b60200260200101516000015173ffffffffffffffffffffffffffffffffffffffff167f1ac0ea999b738b283ae77e99edd35570fec473ccbc05938fba44d3129608af1f60405161042f90610eab565b60405180910390a250505061050f565b600160008087878151811061045757610456610d2f565b5b60200260200101516000015173ffffffffffffffffffffffffffffffffffffffff1673ffffffffffffffffffffffffffffffffffffffff16815260200190815260200160002060006101000a81548160ff0219169083151502179055507f98f81efbbc42e3175555266dc8fda4ea0859ca75447f118fdde2c72a2b8735f1818686815181106104e9576104e8610d2f565b5b602002602001015160200151604051610503929190610ecb565b60405180910390a15050505b808061051a90610f23565b9150506101f3565b5050565b6000600160009054906101000a900473ffffffffffffffffffffffffffffffffffffffff1673ffffffffffffffffffffffffffffffffffffffff163373ffffffffffffffffffffffffffffffffffffffff16146105b8576040517f08c379a00000000000000000000000000000000000000000000000000000000081526004016105af90610fdd565b60405180910390fd5b6002829080600181540180825580915050600190039060005260206000200160009091909190915055600060016002805490506105f59190610ffd565b9050807ff19120db664ce0e22982ceb95836c6e92bbedca9b3ad07a9d16d1a2b0af4406b8460405161062791906108eb565b60405180910390a280915050919050565b6002818154811061064857600080fd5b906000526020600020016000915090505481565b600160009054906101000a900473ffffffffffffffffffffffffffffffffffffffff1681565b60008160405160200161069591906110a9565b604051602081830303815290604052805190602001209050919050565b6000806000806106c185610721565b925092509250600186848484604051600081526020016040526040516106ea94939291906110eb565b6020604051602081039080840390855afa15801561070c573d6000803e3d6000fd5b50505060206040510351935050505092915050565b6000806000604184511461076a576040517f08c379a00000000000000000000000000000000000000000000000000000000081526004016107619061117c565b60405180910390fd5b60008060006020870151925060408701519150606087015160001a90508083839550955095505050509193909250565b6000604051905090565b600080fd5b600080fd5b600073ffffffffffffffffffffffffffffffffffffffff82169050919050565b60006107d9826107ae565b9050919050565b6107e9816107ce565b81146107f457600080fd5b50565b600081359050610806816107e0565b92915050565b600060208284031215610822576108216107a4565b5b6000610830848285016107f7565b91505092915050565b60008115159050919050565b61084e81610839565b82525050565b60006020820190506108696000830184610845565b92915050565b6000819050919050565b6108828161086f565b811461088d57600080fd5b50565b60008135905061089f81610879565b92915050565b6000602082840312156108bb576108ba6107a4565b5b60006108c984828501610890565b91505092915050565b6000819050919050565b6108e5816108d2565b82525050565b600060208201905061090060008301846108dc565b92915050565b600080fd5b6000601f19601f8301169050919050565b7f4e487b7100000000000000000000000000000000000000000000000000000000600052604160045260246000fd5b6109548261090b565b810181811067ffffffffffffffff821117156109735761097261091c565b5b80604052505050565b600061098661079a565b9050610992828261094b565b919050565b600067ffffffffffffffff8211156109b2576109b161091c565b5b602082029050602081019050919050565b600080fd5b600080fd5b600080fd5b600080fd5b600067ffffffffffffffff8211156109f2576109f161091c565b5b6109fb8261090b565b9050602081019050919050565b82818337600083830152505050565b6000610a2a610a25846109d7565b61097c565b905082815260208101848484011115610a4657610a456109d2565b5b610a51848285610a08565b509392505050565b600082601f830112610a6e57610a6d610906565b5b8135610a7e848260208601610a17565b91505092915050565b600060608284031215610a9d57610a9c6109c8565b5b610aa7606061097c565b90506000610ab7848285016107f7565b6000830152506020610acb84828501610890565b602083015250604082013567ffffffffffffffff811115610aef57610aee6109cd565b5b610afb84828501610a59565b60408301525092915050565b6000610b1a610b1584610997565b61097c565b90508083825260208201905060208402830185811115610b3d57610b3c6109c3565b5b835b81811015610b8457803567ffffffffffffffff811115610b6257610b61610906565b5b808601610b6f8982610a87565b85526020850194505050602081019050610b3f565b5050509392505050565b600082601f830112610ba357610ba2610906565b5b8135610bb3848260208601610b07565b91505092915050565b600060208284031215610bd257610bd16107a4565b5b600082013567ffffffffffffffff811115610bf057610bef6107a9565b5b610bfc84828501610b8e565b91505092915050565b610c0e816108d2565b8114610c1957600080fd5b50565b600081359050610c2b81610c05565b92915050565b600060208284031215610c4757610c466107a4565b5b6000610c5584828501610c1c565b91505092915050565b610c678161086f565b82525050565b6000602082019050610c826000830184610c5e565b92915050565b610c91816107ce565b82525050565b6000602082019050610cac6000830184610c88565b92915050565b600082825260208201905092915050565b7f496e646578206f7574206f6620626f756e647300000000000000000000000000600082015250565b6000610cf9601383610cb2565b9150610d0482610cc3565b602082019050919050565b60006020820190508181036000830152610d2881610cec565b9050919050565b7f4e487b7100000000000000000000000000000000000000000000000000000000600052603260045260246000fd5b7f416c726561647920766f74656400000000000000000000000000000000000000600082015250565b6000610d94600d83610cb2565b9150610d9f82610d5e565b602082019050919050565b60006020820190508181036000830152610dc381610d87565b9050919050565b60008160601b9050919050565b6000610de282610dca565b9050919050565b6000610df482610dd7565b9050919050565b610e0c610e07826107ce565b610de9565b82525050565b6000819050919050565b610e2d610e288261086f565b610e12565b82525050565b6000610e3f8285610dfb565b601482019150610e4f8284610e1c565b6020820191508190509392505050565b7f496e76616c6964207369676e6174757265000000000000000000000000000000600082015250565b6000610e95601183610cb2565b9150610ea082610e5f565b602082019050919050565b60006020820190508181036000830152610ec481610e88565b9050919050565b6000604082019050610ee06000830185610c88565b610eed6020830184610c5e565b9392505050565b7f4e487b7100000000000000000000000000000000000000000000000000000000600052601160045260246000fd5b6000610f2e8261086f565b91507fffffffffffffffffffffffffffffffffffffffffffffffffffffffffffffffff8203610f6057610f5f610ef4565b5b600182019050919050565b7f4f6e6c79206f776e65722063616e2073746f7265204d65726b6c6520726f6f7460008201527f7300000000000000000000000000000000000000000000000000000000000000602082015250565b6000610fc7602183610cb2565b9150610fd282610f6b565b604082019050919050565b60006020820190508181036000830152610ff681610fba565b9050919050565b60006110088261086f565b91506110138361086f565b925082820390508181111561102b5761102a610ef4565b5b92915050565b600081905092915050565b7f19457468657265756d205369676e6564204d6573736167653a0a333200000000600082015250565b6000611072601c83611031565b915061107d8261103c565b601c82019050919050565b6000819050919050565b6110a361109e826108d2565b611088565b82525050565b60006110b482611065565b91506110c08284611092565b60208201915081905092915050565b600060ff82169050919050565b6110e5816110cf565b82525050565b600060808201905061110060008301876108dc565b61110d60208301866110dc565b61111a60408301856108dc565b61112760608301846108dc565b95945050505050565b7f496e76616c6964207369676e6174757265206c656e6774680000000000000000600082015250565b6000611166601883610cb2565b915061117182611130565b602082019050919050565b6000602082019050818103600083015261119581611159565b905091905056fea2646970667358221220c6fa7af0665c29c188b5c9884349305487bc0f157e1174f052ccb0839d5d3a4364736f6c63430008130033",
  "immutableReferences": {},
  "source": "// SPDX-License-Identifier: MIT\r\npragma solidity ^0.8.19;\r\n\r\ncontract VotingContract {\r\n    struct Vote {\r\n        address voter;\r\n        uint256 partyID;\r\n        bytes signature;\r\n    }\r\n\r\n    mapping(address => bool) public hasVoted;\r\n    address public owner;\r\n    bytes32[] public merkleRoots; // Array to store Merkle roots\r\n\r\n    event VoteSubmitted(address voter, uint256 partyID);\r\n    event VoteSkipped(address indexed voter, string reason);\r\n    event MerkleRootStored(uint256 indexed index, bytes32 merkleRoot);\r\n\r\n    constructor() {\r\n        owner = msg.sender;\r\n    }\r\n\r\n    function submitVotes(Vote[] memory votes) public {\r\n        for (uint256 i = 0; i < votes.length; i++) {\r\n            if (hasVoted[votes[i].voter]) {\r\n                // Log or emit an event indicating a duplicate vote (optional)\r\n                emit VoteSkipped(votes[i].voter, \"Already voted\");\r\n                continue; // Skip to the next iteration\r\n            }\r\n\r\n            // Verify signature\r\n            bytes32 message = keccak256(\r\n                abi.encodePacked(votes[i].voter, votes[i].partyID)\r\n            );\r\n            bytes32 ethSignedMessageHash = prefixed(message);\r\n            address signer = recoverSigner(\r\n                ethSignedMessageHash,\r\n                votes[i].signature\r\n            );\r\n\r\n            if (signer != votes[i].voter) {\r\n                // Log or emit an event indicating an invalid signature (optional)\r\n                emit VoteSkipped(votes[i].voter, \"Invalid signature\");\r\n                continue; // Skip to the next iteration\r\n            }\r\n\r\n            hasVoted[votes[i].voter] = true;\r\n\r\n            // Emit vote event\r\n            emit VoteSubmitted(signer, votes[i].partyID);\r\n        }\r\n    }\r\n\r\n    function storeMerkleRoot(bytes32 root) external returns (uint256) {\r\n        require(msg.sender == owner, \"Only owner can store Merkle roots\");\r\n        merkleRoots.push(root);\r\n        uint256 index = merkleRoots.length - 1;\r\n        emit MerkleRootStored(index, root);\r\n        return index;\r\n    }\r\n\r\n    function getMerkleRoot(uint256 index) external view returns (bytes32) {\r\n        require(index < merkleRoots.length, \"Index out of bounds\");\r\n        return merkleRoots[index];\r\n    }\r\n\r\n    function prefixed(bytes32 hash) internal pure returns (bytes32) {\r\n        return\r\n            keccak256(\r\n                abi.encodePacked(\"\\x19Ethereum Signed Message:\\n32\", hash)\r\n            );\r\n    }\r\n\r\n    function recoverSigner(\r\n        bytes32 message,\r\n        bytes memory sig\r\n    ) internal pure returns (address) {\r\n        (uint8 v, bytes32 r, bytes32 s) = splitSignature(sig);\r\n        return ecrecover(message, v, r, s);\r\n    }\r\n\r\n    function splitSignature(\r\n        bytes memory sig\r\n    ) internal pure returns (uint8, bytes32, bytes32) {\r\n        require(sig.length == 65, \"Invalid signature length\");\r\n        bytes32 r;\r\n        bytes32 s;\r\n        uint8 v;\r\n        assembly {\r\n            r := mload(add(sig, 32))\r\n            s := mload(add(sig, 64))\r\n            v := byte(0, mload(add(sig, 96)))\r\n        }\r\n        return (v, r, s);\r\n    }\r\n}\r\n",
  "sourcePath": "C:\\Users\\Suhrud k\\OneDrive - somaiya.edu\\KJS material\\TY KJSCE\\MiniProj\\Votes\\auth-final\\backend\\contracts\\Voting.sol",
  "compiler": {
    "name": "solc",
    "version": "0.8.19+commit.7dd6d404.Emscripten.clang"
  },
  "schemaVersion": "3.4.16",
  "updatedAt": "2025-04-19T18:49:40.228Z",
  "networkType": "ethereum",
  "devdoc": {
    "kind": "dev",
    "methods": {},
    "version": 1
  },
  "userdoc": {
    "kind": "user",
    "methods": {},
    "version": 1
  }
}